{
  "_format": "hh-sol-artifact-1",
  "contractName": "ChickenKoin",
  "sourceName": "contracts/ChickenKoin.sol",
  "abi": [
    {
      "inputs": [
        {
          "internalType": "address",
          "name": "_owner",
          "type": "address"
        },
        {
          "internalType": "string",
          "name": "_name",
          "type": "string"
        },
        {
          "internalType": "string",
          "name": "_symbol",
          "type": "string"
        },
        {
          "internalType": "address",
          "name": "_myria",
          "type": "address"
        }
      ],
      "stateMutability": "nonpayable",
      "type": "constructor"
    },
    {
      "anonymous": false,
      "inputs": [
        {
          "indexed": true,
          "internalType": "address",
          "name": "owner",
          "type": "address"
        },
        {
          "indexed": true,
          "internalType": "address",
          "name": "spender",
          "type": "address"
        },
        {
          "indexed": false,
          "internalType": "uint256",
          "name": "value",
          "type": "uint256"
        }
      ],
      "name": "Approval",
      "type": "event"
    },
    {
      "anonymous": false,
      "inputs": [
        {
          "indexed": false,
          "internalType": "address",
          "name": "to",
          "type": "address"
        },
        {
          "indexed": false,
          "internalType": "uint256",
          "name": "amount",
          "type": "uint256"
        }
      ],
      "name": "AssetMinted",
      "type": "event"
    },
    {
      "anonymous": false,
      "inputs": [
        {
          "indexed": true,
          "internalType": "address",
          "name": "previousOwner",
          "type": "address"
        },
        {
          "indexed": true,
          "internalType": "address",
          "name": "newOwner",
          "type": "address"
        }
      ],
      "name": "OwnershipTransferred",
      "type": "event"
    },
    {
      "anonymous": false,
      "inputs": [
        {
          "indexed": true,
          "internalType": "address",
          "name": "from",
          "type": "address"
        },
        {
          "indexed": true,
          "internalType": "address",
          "name": "to",
          "type": "address"
        },
        {
          "indexed": false,
          "internalType": "uint256",
          "name": "value",
          "type": "uint256"
        }
      ],
      "name": "Transfer",
      "type": "event"
    },
    {
      "inputs": [
        {
          "internalType": "address",
          "name": "owner",
          "type": "address"
        },
        {
          "internalType": "address",
          "name": "spender",
          "type": "address"
        }
      ],
      "name": "allowance",
      "outputs": [
        {
          "internalType": "uint256",
          "name": "",
          "type": "uint256"
        }
      ],
      "stateMutability": "view",
      "type": "function"
    },
    {
      "inputs": [
        {
          "internalType": "address",
          "name": "spender",
          "type": "address"
        },
        {
          "internalType": "uint256",
          "name": "amount",
          "type": "uint256"
        }
      ],
      "name": "approve",
      "outputs": [
        {
          "internalType": "bool",
          "name": "",
          "type": "bool"
        }
      ],
      "stateMutability": "nonpayable",
      "type": "function"
    },
    {
      "inputs": [
        {
          "internalType": "address",
          "name": "account",
          "type": "address"
        }
      ],
      "name": "balanceOf",
      "outputs": [
        {
          "internalType": "uint256",
          "name": "",
          "type": "uint256"
        }
      ],
      "stateMutability": "view",
      "type": "function"
    },
    {
      "inputs": [
        {
          "internalType": "uint256",
          "name": "",
          "type": "uint256"
        }
      ],
      "name": "blueprints",
      "outputs": [
        {
          "internalType": "bytes",
          "name": "",
          "type": "bytes"
        }
      ],
      "stateMutability": "view",
      "type": "function"
    },
    {
      "inputs": [],
      "name": "decimals",
      "outputs": [
        {
          "internalType": "uint8",
          "name": "",
          "type": "uint8"
        }
      ],
      "stateMutability": "view",
      "type": "function"
    },
    {
      "inputs": [
        {
          "internalType": "address",
          "name": "spender",
          "type": "address"
        },
        {
          "internalType": "uint256",
          "name": "subtractedValue",
          "type": "uint256"
        }
      ],
      "name": "decreaseAllowance",
      "outputs": [
        {
          "internalType": "bool",
          "name": "",
          "type": "bool"
        }
      ],
      "stateMutability": "nonpayable",
      "type": "function"
    },
    {
      "inputs": [
        {
          "internalType": "address",
          "name": "spender",
          "type": "address"
        },
        {
          "internalType": "uint256",
          "name": "addedValue",
          "type": "uint256"
        }
      ],
      "name": "increaseAllowance",
      "outputs": [
        {
          "internalType": "bool",
          "name": "",
          "type": "bool"
        }
      ],
      "stateMutability": "nonpayable",
      "type": "function"
    },
    {
      "inputs": [
        {
          "internalType": "address",
          "name": "user",
          "type": "address"
        },
        {
          "internalType": "uint256",
          "name": "amount",
          "type": "uint256"
        }
      ],
      "name": "mint",
      "outputs": [],
      "stateMutability": "nonpayable",
      "type": "function"
    },
    {
      "inputs": [
        {
          "internalType": "address",
          "name": "user",
          "type": "address"
        },
        {
          "internalType": "uint256",
          "name": "amount",
          "type": "uint256"
        },
        {
          "internalType": "bytes",
          "name": "mintingBlob",
          "type": "bytes"
        }
      ],
      "name": "mintFor",
      "outputs": [],
      "stateMutability": "nonpayable",
      "type": "function"
    },
    {
      "inputs": [],
      "name": "myria",
      "outputs": [
        {
          "internalType": "address",
          "name": "",
          "type": "address"
        }
      ],
      "stateMutability": "view",
      "type": "function"
    },
    {
      "inputs": [],
      "name": "name",
      "outputs": [
        {
          "internalType": "string",
          "name": "",
          "type": "string"
        }
      ],
      "stateMutability": "view",
      "type": "function"
    },
    {
      "inputs": [],
      "name": "owner",
      "outputs": [
        {
          "internalType": "address",
          "name": "",
          "type": "address"
        }
      ],
      "stateMutability": "view",
      "type": "function"
    },
    {
      "inputs": [],
      "name": "renounceOwnership",
      "outputs": [],
      "stateMutability": "nonpayable",
      "type": "function"
    },
    {
      "inputs": [],
      "name": "symbol",
      "outputs": [
        {
          "internalType": "string",
          "name": "",
          "type": "string"
        }
      ],
      "stateMutability": "view",
      "type": "function"
    },
    {
      "inputs": [],
      "name": "totalSupply",
      "outputs": [
        {
          "internalType": "uint256",
          "name": "",
          "type": "uint256"
        }
      ],
      "stateMutability": "view",
      "type": "function"
    },
    {
      "inputs": [
        {
          "internalType": "address",
          "name": "to",
          "type": "address"
        },
        {
          "internalType": "uint256",
          "name": "amount",
          "type": "uint256"
        }
      ],
      "name": "transfer",
      "outputs": [
        {
          "internalType": "bool",
          "name": "",
          "type": "bool"
        }
      ],
      "stateMutability": "nonpayable",
      "type": "function"
    },
    {
      "inputs": [
        {
          "internalType": "address",
          "name": "from",
          "type": "address"
        },
        {
          "internalType": "address",
          "name": "to",
          "type": "address"
        },
        {
          "internalType": "uint256",
          "name": "amount",
          "type": "uint256"
        }
      ],
      "name": "transferFrom",
      "outputs": [
        {
          "internalType": "bool",
          "name": "",
          "type": "bool"
        }
      ],
      "stateMutability": "nonpayable",
      "type": "function"
    },
    {
      "inputs": [
        {
          "internalType": "address",
          "name": "newOwner",
          "type": "address"
        }
      ],
      "name": "transferOwnership",
      "outputs": [],
      "stateMutability": "nonpayable",
      "type": "function"
    }
  ],
  "bytecode": "0x60806040523480156200001157600080fd5b5060405162002663380380620026638339818101604052810190620000379190620004a7565b838184848160039080519060200190620000539291906200036e565b5080600490805190602001906200006c9291906200036e565b5050506200008f620000836200016060201b60201c565b6200016860201b60201c565b80600660006101000a81548173ffffffffffffffffffffffffffffffffffffffff021916908373ffffffffffffffffffffffffffffffffffffffff160217905550600073ffffffffffffffffffffffffffffffffffffffff168273ffffffffffffffffffffffffffffffffffffffff16141562000143576040517f08c379a00000000000000000000000000000000000000000000000000000000081526004016200013a90620005dc565b60405180910390fd5b62000154826200022e60201b60201c565b50505050505062000890565b600033905090565b6000600560009054906101000a900473ffffffffffffffffffffffffffffffffffffffff16905081600560006101000a81548173ffffffffffffffffffffffffffffffffffffffff021916908373ffffffffffffffffffffffffffffffffffffffff1602179055508173ffffffffffffffffffffffffffffffffffffffff168173ffffffffffffffffffffffffffffffffffffffff167f8be0079c531659141344cd1fd0a4f28419497f9722a3daafe3b4186f6b6457e060405160405180910390a35050565b6200023e6200016060201b60201c565b73ffffffffffffffffffffffffffffffffffffffff16620002646200034460201b60201c565b73ffffffffffffffffffffffffffffffffffffffff1614620002bd576040517f08c379a0000000000000000000000000000000000000000000000000000000008152600401620002b490620005fe565b60405180910390fd5b600073ffffffffffffffffffffffffffffffffffffffff168173ffffffffffffffffffffffffffffffffffffffff16141562000330576040517f08c379a00000000000000000000000000000000000000000000000000000000081526004016200032790620005ba565b60405180910390fd5b62000341816200016860201b60201c565b50565b6000600560009054906101000a900473ffffffffffffffffffffffffffffffffffffffff16905090565b8280546200037c90620006fa565b90600052602060002090601f016020900481019282620003a05760008555620003ec565b82601f10620003bb57805160ff1916838001178555620003ec565b82800160010185558215620003ec579182015b82811115620003eb578251825591602001919060010190620003ce565b5b509050620003fb9190620003ff565b5090565b5b808211156200041a57600081600090555060010162000400565b5090565b6000620004356200042f8462000649565b62000620565b9050828152602081018484840111156200044e57600080fd5b6200045b848285620006c4565b509392505050565b600081519050620004748162000876565b92915050565b600082601f8301126200048c57600080fd5b81516200049e8482602086016200041e565b91505092915050565b60008060008060808587031215620004be57600080fd5b6000620004ce8782880162000463565b945050602085015167ffffffffffffffff811115620004ec57600080fd5b620004fa878288016200047a565b935050604085015167ffffffffffffffff8111156200051857600080fd5b62000526878288016200047a565b9250506060620005398782880162000463565b91505092959194509250565b6000620005546026836200067f565b91506200056182620007d5565b604082019050919050565b60006200057b6017836200067f565b9150620005888262000824565b602082019050919050565b6000620005a26020836200067f565b9150620005af826200084d565b602082019050919050565b60006020820190508181036000830152620005d58162000545565b9050919050565b60006020820190508181036000830152620005f7816200056c565b9050919050565b60006020820190508181036000830152620006198162000593565b9050919050565b60006200062c6200063f565b90506200063a828262000730565b919050565b6000604051905090565b600067ffffffffffffffff82111562000667576200066662000795565b5b6200067282620007c4565b9050602081019050919050565b600082825260208201905092915050565b60006200069d82620006a4565b9050919050565b600073ffffffffffffffffffffffffffffffffffffffff82169050919050565b60005b83811015620006e4578082015181840152602081019050620006c7565b83811115620006f4576000848401525b50505050565b600060028204905060018216806200071357607f821691505b602082108114156200072a576200072962000766565b5b50919050565b6200073b82620007c4565b810181811067ffffffffffffffff821117156200075d576200075c62000795565b5b80604052505050565b7f4e487b7100000000000000000000000000000000000000000000000000000000600052602260045260246000fd5b7f4e487b7100000000000000000000000000000000000000000000000000000000600052604160045260246000fd5b6000601f19601f8301169050919050565b7f4f776e61626c653a206e6577206f776e657220697320746865207a65726f206160008201527f6464726573730000000000000000000000000000000000000000000000000000602082015250565b7f4f776e6572206d757374206e6f7420626520656d707479000000000000000000600082015250565b7f4f776e61626c653a2063616c6c6572206973206e6f7420746865206f776e6572600082015250565b620008818162000690565b81146200088d57600080fd5b50565b611dc380620008a06000396000f3fe608060405234801561001057600080fd5b50600436106101155760003560e01c806366bf33be116100a257806395d89b411161007157806395d89b41146102e2578063a457c2d714610300578063a9059cbb14610330578063dd62ed3e14610360578063f2fde38b1461039057610115565b806366bf33be1461025a57806370a082311461028a578063715018a6146102ba5780638da5cb5b146102c457610115565b806319ee6e3f116100e957806319ee6e3f146101a457806323b872dd146101c0578063313ce567146101f0578063395093511461020e57806340c10f191461023e57610115565b806256829e1461011a57806306fdde0314610138578063095ea7b31461015657806318160ddd14610186575b600080fd5b6101226103ac565b60405161012f919061167c565b60405180910390f35b6101406103d2565b60405161014d91906116fd565b60405180910390f35b610170600480360381019061016b919061137c565b610464565b60405161017d91906116c0565b60405180910390f35b61018e610487565b60405161019b919061187f565b60405180910390f35b6101be60048036038101906101b991906113b8565b610491565b005b6101da60048036038101906101d5919061132d565b6105a7565b6040516101e791906116c0565b60405180910390f35b6101f86105d6565b604051610205919061189a565b60405180910390f35b6102286004803603810190610223919061137c565b6105df565b60405161023591906116c0565b60405180910390f35b6102586004803603810190610253919061137c565b610616565b005b610274600480360381019061026f9190611424565b6106f1565b60405161028191906116db565b60405180910390f35b6102a4600480360381019061029f91906112c8565b610791565b6040516102b1919061187f565b60405180910390f35b6102c26107d9565b005b6102cc610861565b6040516102d9919061167c565b60405180910390f35b6102ea61088b565b6040516102f791906116fd565b60405180910390f35b61031a6004803603810190610315919061137c565b61091d565b60405161032791906116c0565b60405180910390f35b61034a6004803603810190610345919061137c565b610994565b60405161035791906116c0565b60405180910390f35b61037a600480360381019061037591906112f1565b6109b7565b604051610387919061187f565b60405180910390f35b6103aa60048036038101906103a591906112c8565b610a3e565b005b600660009054906101000a900473ffffffffffffffffffffffffffffffffffffffff1681565b6060600380546103e1906119cb565b80601f016020809104026020016040519081016040528092919081815260200182805461040d906119cb565b801561045a5780601f1061042f5761010080835404028352916020019161045a565b820191906000526020600020905b81548152906001019060200180831161043d57829003601f168201915b5050505050905090565b60008061046f610b36565b905061047c818585610b3e565b600191505092915050565b6000600254905090565b600660009054906101000a900473ffffffffffffffffffffffffffffffffffffffff1673ffffffffffffffffffffffffffffffffffffffff163373ffffffffffffffffffffffffffffffffffffffff16148061051f57506104f0610861565b73ffffffffffffffffffffffffffffffffffffffff163373ffffffffffffffffffffffffffffffffffffffff16145b61055e576040517f08c379a0000000000000000000000000000000000000000000000000000000008152600401610555906117df565b60405180910390fd5b6105688484610d09565b7f8d1457c1d60a6987eabbac898a50d8d7c81ba604c563663d2807027a4b0790548484604051610599929190611697565b60405180910390a150505050565b6000806105b2610b36565b90506105bf858285610d17565b6105ca858585610da3565b60019150509392505050565b60006012905090565b6000806105ea610b36565b905061060b8185856105fc85896109b7565b61060691906118ed565b610b3e565b600191505092915050565b600660009054906101000a900473ffffffffffffffffffffffffffffffffffffffff1673ffffffffffffffffffffffffffffffffffffffff163373ffffffffffffffffffffffffffffffffffffffff1614806106a45750610675610861565b73ffffffffffffffffffffffffffffffffffffffff163373ffffffffffffffffffffffffffffffffffffffff16145b6106e3576040517f08c379a00000000000000000000000000000000000000000000000000000000081526004016106da906117df565b60405180910390fd5b6106ed8282611024565b5050565b60076020528060005260406000206000915090508054610710906119cb565b80601f016020809104026020016040519081016040528092919081815260200182805461073c906119cb565b80156107895780601f1061075e57610100808354040283529160200191610789565b820191906000526020600020905b81548152906001019060200180831161076c57829003601f168201915b505050505081565b60008060008373ffffffffffffffffffffffffffffffffffffffff1673ffffffffffffffffffffffffffffffffffffffff168152602001908152602001600020549050919050565b6107e1610b36565b73ffffffffffffffffffffffffffffffffffffffff166107ff610861565b73ffffffffffffffffffffffffffffffffffffffff1614610855576040517f08c379a000000000000000000000000000000000000000000000000000000000815260040161084c906117bf565b60405180910390fd5b61085f6000611184565b565b6000600560009054906101000a900473ffffffffffffffffffffffffffffffffffffffff16905090565b60606004805461089a906119cb565b80601f01602080910402602001604051908101604052809291908181526020018280546108c6906119cb565b80156109135780601f106108e857610100808354040283529160200191610913565b820191906000526020600020905b8154815290600101906020018083116108f657829003601f168201915b5050505050905090565b600080610928610b36565b9050600061093682866109b7565b90508381101561097b576040517f08c379a00000000000000000000000000000000000000000000000000000000081526004016109729061183f565b60405180910390fd5b6109888286868403610b3e565b60019250505092915050565b60008061099f610b36565b90506109ac818585610da3565b600191505092915050565b6000600160008473ffffffffffffffffffffffffffffffffffffffff1673ffffffffffffffffffffffffffffffffffffffff16815260200190815260200160002060008373ffffffffffffffffffffffffffffffffffffffff1673ffffffffffffffffffffffffffffffffffffffff16815260200190815260200160002054905092915050565b610a46610b36565b73ffffffffffffffffffffffffffffffffffffffff16610a64610861565b73ffffffffffffffffffffffffffffffffffffffff1614610aba576040517f08c379a0000000000000000000000000000000000000000000000000000000008152600401610ab1906117bf565b60405180910390fd5b600073ffffffffffffffffffffffffffffffffffffffff168173ffffffffffffffffffffffffffffffffffffffff161415610b2a576040517f08c379a0000000000000000000000000000000000000000000000000000000008152600401610b219061173f565b60405180910390fd5b610b3381611184565b50565b600033905090565b600073ffffffffffffffffffffffffffffffffffffffff168373ffffffffffffffffffffffffffffffffffffffff161415610bae576040517f08c379a0000000000000000000000000000000000000000000000000000000008152600401610ba59061181f565b60405180910390fd5b600073ffffffffffffffffffffffffffffffffffffffff168273ffffffffffffffffffffffffffffffffffffffff161415610c1e576040517f08c379a0000000000000000000000000000000000000000000000000000000008152600401610c159061175f565b60405180910390fd5b80600160008573ffffffffffffffffffffffffffffffffffffffff1673ffffffffffffffffffffffffffffffffffffffff16815260200190815260200160002060008473ffffffffffffffffffffffffffffffffffffffff1673ffffffffffffffffffffffffffffffffffffffff168152602001908152602001600020819055508173ffffffffffffffffffffffffffffffffffffffff168373ffffffffffffffffffffffffffffffffffffffff167f8c5be1e5ebec7d5bd14f71427d1e84f3dd0314c0f7b2291e5b200ac8c7c3b92583604051610cfc919061187f565b60405180910390a3505050565b610d138282611024565b5050565b6000610d2384846109b7565b90507fffffffffffffffffffffffffffffffffffffffffffffffffffffffffffffffff8114610d9d5781811015610d8f576040517f08c379a0000000000000000000000000000000000000000000000000000000008152600401610d869061177f565b60405180910390fd5b610d9c8484848403610b3e565b5b50505050565b600073ffffffffffffffffffffffffffffffffffffffff168373ffffffffffffffffffffffffffffffffffffffff161415610e13576040517f08c379a0000000000000000000000000000000000000000000000000000000008152600401610e0a906117ff565b60405180910390fd5b600073ffffffffffffffffffffffffffffffffffffffff168273ffffffffffffffffffffffffffffffffffffffff161415610e83576040517f08c379a0000000000000000000000000000000000000000000000000000000008152600401610e7a9061171f565b60405180910390fd5b610e8e83838361124a565b60008060008573ffffffffffffffffffffffffffffffffffffffff1673ffffffffffffffffffffffffffffffffffffffff16815260200190815260200160002054905081811015610f14576040517f08c379a0000000000000000000000000000000000000000000000000000000008152600401610f0b9061179f565b60405180910390fd5b8181036000808673ffffffffffffffffffffffffffffffffffffffff1673ffffffffffffffffffffffffffffffffffffffff16815260200190815260200160002081905550816000808573ffffffffffffffffffffffffffffffffffffffff1673ffffffffffffffffffffffffffffffffffffffff1681526020019081526020016000206000828254610fa791906118ed565b925050819055508273ffffffffffffffffffffffffffffffffffffffff168473ffffffffffffffffffffffffffffffffffffffff167fddf252ad1be2c89b69c2b068fc378daa952ba7f163c4a11628f55a4df523b3ef8460405161100b919061187f565b60405180910390a361101e84848461124f565b50505050565b600073ffffffffffffffffffffffffffffffffffffffff168273ffffffffffffffffffffffffffffffffffffffff161415611094576040517f08c379a000000000000000000000000000000000000000000000000000000000815260040161108b9061185f565b60405180910390fd5b6110a06000838361124a565b80600260008282546110b291906118ed565b92505081905550806000808473ffffffffffffffffffffffffffffffffffffffff1673ffffffffffffffffffffffffffffffffffffffff168152602001908152602001600020600082825461110791906118ed565b925050819055508173ffffffffffffffffffffffffffffffffffffffff16600073ffffffffffffffffffffffffffffffffffffffff167fddf252ad1be2c89b69c2b068fc378daa952ba7f163c4a11628f55a4df523b3ef8360405161116c919061187f565b60405180910390a36111806000838361124f565b5050565b6000600560009054906101000a900473ffffffffffffffffffffffffffffffffffffffff16905081600560006101000a81548173ffffffffffffffffffffffffffffffffffffffff021916908373ffffffffffffffffffffffffffffffffffffffff1602179055508173ffffffffffffffffffffffffffffffffffffffff168173ffffffffffffffffffffffffffffffffffffffff167f8be0079c531659141344cd1fd0a4f28419497f9722a3daafe3b4186f6b6457e060405160405180910390a35050565b505050565b505050565b60008135905061126381611d5f565b92915050565b60008083601f84011261127b57600080fd5b8235905067ffffffffffffffff81111561129457600080fd5b6020830191508360018202830111156112ac57600080fd5b9250929050565b6000813590506112c281611d76565b92915050565b6000602082840312156112da57600080fd5b60006112e884828501611254565b91505092915050565b6000806040838503121561130457600080fd5b600061131285828601611254565b925050602061132385828601611254565b9150509250929050565b60008060006060848603121561134257600080fd5b600061135086828701611254565b935050602061136186828701611254565b9250506040611372868287016112b3565b9150509250925092565b6000806040838503121561138f57600080fd5b600061139d85828601611254565b92505060206113ae858286016112b3565b9150509250929050565b600080600080606085870312156113ce57600080fd5b60006113dc87828801611254565b94505060206113ed878288016112b3565b935050604085013567ffffffffffffffff81111561140a57600080fd5b61141687828801611269565b925092505092959194509250565b60006020828403121561143657600080fd5b6000611444848285016112b3565b91505092915050565b61145681611943565b82525050565b61146581611955565b82525050565b6000611476826118b5565b61148081856118cb565b9350611490818560208601611998565b61149981611a5b565b840191505092915050565b60006114af826118c0565b6114b981856118dc565b93506114c9818560208601611998565b6114d281611a5b565b840191505092915050565b60006114ea6023836118dc565b91506114f582611a6c565b604082019050919050565b600061150d6026836118dc565b915061151882611abb565b604082019050919050565b60006115306022836118dc565b915061153b82611b0a565b604082019050919050565b6000611553601d836118dc565b915061155e82611b59565b602082019050919050565b60006115766026836118dc565b915061158182611b82565b604082019050919050565b60006115996020836118dc565b91506115a482611bd1565b602082019050919050565b60006115bc602d836118dc565b91506115c782611bfa565b604082019050919050565b60006115df6025836118dc565b91506115ea82611c49565b604082019050919050565b60006116026024836118dc565b915061160d82611c98565b604082019050919050565b60006116256025836118dc565b915061163082611ce7565b604082019050919050565b6000611648601f836118dc565b915061165382611d36565b602082019050919050565b61166781611981565b82525050565b6116768161198b565b82525050565b6000602082019050611691600083018461144d565b92915050565b60006040820190506116ac600083018561144d565b6116b9602083018461165e565b9392505050565b60006020820190506116d5600083018461145c565b92915050565b600060208201905081810360008301526116f5818461146b565b905092915050565b6000602082019050818103600083015261171781846114a4565b905092915050565b60006020820190508181036000830152611738816114dd565b9050919050565b6000602082019050818103600083015261175881611500565b9050919050565b6000602082019050818103600083015261177881611523565b9050919050565b6000602082019050818103600083015261179881611546565b9050919050565b600060208201905081810360008301526117b881611569565b9050919050565b600060208201905081810360008301526117d88161158c565b9050919050565b600060208201905081810360008301526117f8816115af565b9050919050565b60006020820190508181036000830152611818816115d2565b9050919050565b60006020820190508181036000830152611838816115f5565b9050919050565b6000602082019050818103600083015261185881611618565b9050919050565b600060208201905081810360008301526118788161163b565b9050919050565b6000602082019050611894600083018461165e565b92915050565b60006020820190506118af600083018461166d565b92915050565b600081519050919050565b600081519050919050565b600082825260208201905092915050565b600082825260208201905092915050565b60006118f882611981565b915061190383611981565b9250827fffffffffffffffffffffffffffffffffffffffffffffffffffffffffffffffff03821115611938576119376119fd565b5b828201905092915050565b600061194e82611961565b9050919050565b60008115159050919050565b600073ffffffffffffffffffffffffffffffffffffffff82169050919050565b6000819050919050565b600060ff82169050919050565b60005b838110156119b657808201518184015260208101905061199b565b838111156119c5576000848401525b50505050565b600060028204905060018216806119e357607f821691505b602082108114156119f7576119f6611a2c565b5b50919050565b7f4e487b7100000000000000000000000000000000000000000000000000000000600052601160045260246000fd5b7f4e487b7100000000000000000000000000000000000000000000000000000000600052602260045260246000fd5b6000601f19601f8301169050919050565b7f45524332303a207472616e7366657220746f20746865207a65726f206164647260008201527f6573730000000000000000000000000000000000000000000000000000000000602082015250565b7f4f776e61626c653a206e6577206f776e657220697320746865207a65726f206160008201527f6464726573730000000000000000000000000000000000000000000000000000602082015250565b7f45524332303a20617070726f766520746f20746865207a65726f20616464726560008201527f7373000000000000000000000000000000000000000000000000000000000000602082015250565b7f45524332303a20696e73756666696369656e7420616c6c6f77616e6365000000600082015250565b7f45524332303a207472616e7366657220616d6f756e742065786365656473206260008201527f616c616e63650000000000000000000000000000000000000000000000000000602082015250565b7f4f776e61626c653a2063616c6c6572206973206e6f7420746865206f776e6572600082015250565b7f46756e6374696f6e2063616e206f6e6c792062652063616c6c6564206279206f60008201527f776e6572206f72206d7972696100000000000000000000000000000000000000602082015250565b7f45524332303a207472616e736665722066726f6d20746865207a65726f20616460008201527f6472657373000000000000000000000000000000000000000000000000000000602082015250565b7f45524332303a20617070726f76652066726f6d20746865207a65726f2061646460008201527f7265737300000000000000000000000000000000000000000000000000000000602082015250565b7f45524332303a2064656372656173656420616c6c6f77616e63652062656c6f7760008201527f207a65726f000000000000000000000000000000000000000000000000000000602082015250565b7f45524332303a206d696e7420746f20746865207a65726f206164647265737300600082015250565b611d6881611943565b8114611d7357600080fd5b50565b611d7f81611981565b8114611d8a57600080fd5b5056fea264697066735822122028ef4e3c60077ed12c34daf43e0b4f1c05233fb614f4b1454a00bf2469807d7b64736f6c63430008010033",
  "linkReferences": {},
  "deployedLinkReferences": {}
}